{
  "_format": "hh-sol-artifact-1",
  "contractName": "Metaedu",
  "sourceName": "contracts/Metaedu.sol",
  "abi": [
    {
      "inputs": [],
      "stateMutability": "nonpayable",
      "type": "constructor"
    },
    {
      "anonymous": false,
      "inputs": [
        {
          "indexed": true,
          "internalType": "address",
          "name": "account",
          "type": "address"
        },
        {
          "indexed": true,
          "internalType": "address",
          "name": "operator",
          "type": "address"
        },
        {
          "indexed": false,
          "internalType": "bool",
          "name": "approved",
          "type": "bool"
        }
      ],
      "name": "ApprovalForAll",
      "type": "event"
    },
    {
      "anonymous": false,
      "inputs": [
        {
          "indexed": true,
          "internalType": "address",
          "name": "user",
          "type": "address"
        },
        {
          "indexed": false,
          "internalType": "uint256",
          "name": "balance",
          "type": "uint256"
        },
        {
          "indexed": false,
          "internalType": "uint256",
          "name": "price",
          "type": "uint256"
        }
      ],
      "name": "CheckBalance",
      "type": "event"
    },
    {
      "anonymous": false,
      "inputs": [
        {
          "indexed": true,
          "internalType": "address",
          "name": "user",
          "type": "address"
        },
        {
          "indexed": true,
          "internalType": "uint256",
          "name": "tokenId",
          "type": "uint256"
        }
      ],
      "name": "CheckOwner",
      "type": "event"
    },
    {
      "anonymous": false,
      "inputs": [
        {
          "indexed": false,
          "internalType": "uint256",
          "name": "tokenId",
          "type": "uint256"
        },
        {
          "indexed": false,
          "internalType": "address",
          "name": "owner",
          "type": "address"
        },
        {
          "indexed": false,
          "internalType": "uint256",
          "name": "supply",
          "type": "uint256"
        },
        {
          "indexed": false,
          "internalType": "uint256",
          "name": "price",
          "type": "uint256"
        }
      ],
      "name": "ItemAddedForRent",
      "type": "event"
    },
    {
      "anonymous": false,
      "inputs": [
        {
          "indexed": false,
          "internalType": "uint256",
          "name": "tokenId",
          "type": "uint256"
        },
        {
          "indexed": false,
          "internalType": "address",
          "name": "owner",
          "type": "address"
        },
        {
          "indexed": false,
          "internalType": "uint256",
          "name": "supply",
          "type": "uint256"
        },
        {
          "indexed": false,
          "internalType": "uint256",
          "name": "price",
          "type": "uint256"
        }
      ],
      "name": "ItemAddedForSale",
      "type": "event"
    },
    {
      "anonymous": false,
      "inputs": [
        {
          "indexed": false,
          "internalType": "address",
          "name": "buyer",
          "type": "address"
        },
        {
          "indexed": false,
          "internalType": "address",
          "name": "seller",
          "type": "address"
        },
        {
          "indexed": false,
          "internalType": "uint256",
          "name": "tokenId",
          "type": "uint256"
        },
        {
          "indexed": false,
          "internalType": "uint256",
          "name": "price",
          "type": "uint256"
        }
      ],
      "name": "ItemBuy",
      "type": "event"
    },
    {
      "anonymous": false,
      "inputs": [
        {
          "indexed": false,
          "internalType": "address",
          "name": "user",
          "type": "address"
        },
        {
          "indexed": false,
          "internalType": "address",
          "name": "owner",
          "type": "address"
        },
        {
          "indexed": false,
          "internalType": "uint256",
          "name": "tokenId",
          "type": "uint256"
        },
        {
          "indexed": false,
          "internalType": "uint256",
          "name": "price",
          "type": "uint256"
        },
        {
          "indexed": false,
          "internalType": "uint256",
          "name": "day",
          "type": "uint256"
        }
      ],
      "name": "ItemRent",
      "type": "event"
    },
    {
      "anonymous": false,
      "inputs": [
        {
          "indexed": true,
          "internalType": "uint256",
          "name": "tokenId",
          "type": "uint256"
        },
        {
          "indexed": false,
          "internalType": "string",
          "name": "uri",
          "type": "string"
        },
        {
          "indexed": true,
          "internalType": "address",
          "name": "owner",
          "type": "address"
        },
        {
          "indexed": true,
          "internalType": "address",
          "name": "nftAddress",
          "type": "address"
        },
        {
          "indexed": false,
          "internalType": "uint256",
          "name": "supply",
          "type": "uint256"
        }
      ],
      "name": "Minted",
      "type": "event"
    },
    {
      "anonymous": false,
      "inputs": [
        {
          "indexed": true,
          "internalType": "uint256",
          "name": "tokenId",
          "type": "uint256"
        },
        {
          "indexed": true,
          "internalType": "address",
          "name": "owner",
          "type": "address"
        },
        {
          "indexed": false,
          "internalType": "uint256",
          "name": "supply",
          "type": "uint256"
        }
      ],
      "name": "ShareOwnership",
      "type": "event"
    },
    {
      "anonymous": false,
      "inputs": [
        {
          "indexed": true,
          "internalType": "address",
          "name": "operator",
          "type": "address"
        },
        {
          "indexed": true,
          "internalType": "address",
          "name": "from",
          "type": "address"
        },
        {
          "indexed": true,
          "internalType": "address",
          "name": "to",
          "type": "address"
        },
        {
          "indexed": false,
          "internalType": "uint256[]",
          "name": "ids",
          "type": "uint256[]"
        },
        {
          "indexed": false,
          "internalType": "uint256[]",
          "name": "values",
          "type": "uint256[]"
        }
      ],
      "name": "TransferBatch",
      "type": "event"
    },
    {
      "anonymous": false,
      "inputs": [
        {
          "indexed": true,
          "internalType": "address",
          "name": "operator",
          "type": "address"
        },
        {
          "indexed": true,
          "internalType": "address",
          "name": "from",
          "type": "address"
        },
        {
          "indexed": true,
          "internalType": "address",
          "name": "to",
          "type": "address"
        },
        {
          "indexed": false,
          "internalType": "uint256",
          "name": "id",
          "type": "uint256"
        },
        {
          "indexed": false,
          "internalType": "uint256",
          "name": "value",
          "type": "uint256"
        }
      ],
      "name": "TransferSingle",
      "type": "event"
    },
    {
      "anonymous": false,
      "inputs": [
        {
          "indexed": false,
          "internalType": "string",
          "name": "value",
          "type": "string"
        },
        {
          "indexed": true,
          "internalType": "uint256",
          "name": "id",
          "type": "uint256"
        }
      ],
      "name": "URI",
      "type": "event"
    },
    {
      "anonymous": false,
      "inputs": [
        {
          "indexed": false,
          "internalType": "uint256",
          "name": "id",
          "type": "uint256"
        },
        {
          "indexed": false,
          "internalType": "address",
          "name": "buyer",
          "type": "address"
        },
        {
          "indexed": false,
          "internalType": "uint256",
          "name": "price",
          "type": "uint256"
        }
      ],
      "name": "itemSold",
      "type": "event"
    },
    {
      "inputs": [
        {
          "internalType": "uint256",
          "name": "",
          "type": "uint256"
        },
        {
          "internalType": "address",
          "name": "",
          "type": "address"
        }
      ],
      "name": "_itemsForRent",
      "outputs": [
        {
          "internalType": "uint256",
          "name": "tokenId",
          "type": "uint256"
        },
        {
          "internalType": "uint256",
          "name": "supply",
          "type": "uint256"
        },
        {
          "internalType": "address payable",
          "name": "owner",
          "type": "address"
        },
        {
          "internalType": "address",
          "name": "user",
          "type": "address"
        },
        {
          "internalType": "uint256",
          "name": "price",
          "type": "uint256"
        },
        {
          "internalType": "uint256",
          "name": "expirationTime",
          "type": "uint256"
        }
      ],
      "stateMutability": "view",
      "type": "function"
    },
    {
      "inputs": [
        {
          "internalType": "uint256",
          "name": "",
          "type": "uint256"
        },
        {
          "internalType": "address",
          "name": "",
          "type": "address"
        }
      ],
      "name": "_itemsForSale",
      "outputs": [
        {
          "internalType": "uint256",
          "name": "tokenId",
          "type": "uint256"
        },
        {
          "internalType": "uint256",
          "name": "supply",
          "type": "uint256"
        },
        {
          "internalType": "address payable",
          "name": "seller",
          "type": "address"
        },
        {
          "internalType": "uint256",
          "name": "price",
          "type": "uint256"
        },
        {
          "internalType": "bool",
          "name": "isSold",
          "type": "bool"
        }
      ],
      "stateMutability": "view",
      "type": "function"
    },
    {
      "inputs": [],
      "name": "_ownerAddress",
      "outputs": [
        {
          "internalType": "address",
          "name": "",
          "type": "address"
        }
      ],
      "stateMutability": "view",
      "type": "function"
    },
    {
      "inputs": [
        {
          "internalType": "address",
          "name": "account",
          "type": "address"
        },
        {
          "internalType": "uint256",
          "name": "id",
          "type": "uint256"
        }
      ],
      "name": "balanceOf",
      "outputs": [
        {
          "internalType": "uint256",
          "name": "",
          "type": "uint256"
        }
      ],
      "stateMutability": "view",
      "type": "function"
    },
    {
      "inputs": [
        {
          "internalType": "address[]",
          "name": "accounts",
          "type": "address[]"
        },
        {
          "internalType": "uint256[]",
          "name": "ids",
          "type": "uint256[]"
        }
      ],
      "name": "balanceOfBatch",
      "outputs": [
        {
          "internalType": "uint256[]",
          "name": "",
          "type": "uint256[]"
        }
      ],
      "stateMutability": "view",
      "type": "function"
    },
    {
      "inputs": [
        {
          "internalType": "uint256",
          "name": "_tokenId",
          "type": "uint256"
        },
        {
          "internalType": "uint256",
          "name": "_quantity",
          "type": "uint256"
        },
        {
          "internalType": "address payable",
          "name": "_seller",
          "type": "address"
        },
        {
          "internalType": "uint256",
          "name": "_datetime",
          "type": "uint256"
        }
      ],
      "name": "buy",
      "outputs": [],
      "stateMutability": "payable",
      "type": "function"
    },
    {
      "inputs": [
        {
          "internalType": "address",
          "name": "account",
          "type": "address"
        },
        {
          "internalType": "address",
          "name": "operator",
          "type": "address"
        }
      ],
      "name": "isApprovedForAll",
      "outputs": [
        {
          "internalType": "bool",
          "name": "",
          "type": "bool"
        }
      ],
      "stateMutability": "view",
      "type": "function"
    },
    {
      "inputs": [
        {
          "internalType": "uint256",
          "name": "_supply",
          "type": "uint256"
        },
        {
          "internalType": "string",
          "name": "_uri",
          "type": "string"
        }
      ],
      "name": "mint",
      "outputs": [
        {
          "internalType": "uint256",
          "name": "",
          "type": "uint256"
        }
      ],
      "stateMutability": "nonpayable",
      "type": "function"
    },
    {
      "inputs": [
        {
          "internalType": "address",
          "name": "",
          "type": "address"
        },
        {
          "internalType": "address",
          "name": "",
          "type": "address"
        },
        {
          "internalType": "uint256[]",
          "name": "",
          "type": "uint256[]"
        },
        {
          "internalType": "uint256[]",
          "name": "",
          "type": "uint256[]"
        },
        {
          "internalType": "bytes",
          "name": "",
          "type": "bytes"
        }
      ],
      "name": "onERC1155BatchReceived",
      "outputs": [
        {
          "internalType": "bytes4",
          "name": "",
          "type": "bytes4"
        }
      ],
      "stateMutability": "nonpayable",
      "type": "function"
    },
    {
      "inputs": [
        {
          "internalType": "address",
          "name": "",
          "type": "address"
        },
        {
          "internalType": "address",
          "name": "",
          "type": "address"
        },
        {
          "internalType": "uint256",
          "name": "",
          "type": "uint256"
        },
        {
          "internalType": "uint256",
          "name": "",
          "type": "uint256"
        },
        {
          "internalType": "bytes",
          "name": "",
          "type": "bytes"
        }
      ],
      "name": "onERC1155Received",
      "outputs": [
        {
          "internalType": "bytes4",
          "name": "",
          "type": "bytes4"
        }
      ],
      "stateMutability": "nonpayable",
      "type": "function"
    },
    {
      "inputs": [
        {
          "internalType": "uint256",
          "name": "_tokenId",
          "type": "uint256"
        },
        {
          "internalType": "uint256",
          "name": "_price",
          "type": "uint256"
        },
        {
          "internalType": "uint256",
          "name": "_supply",
          "type": "uint256"
        },
        {
          "internalType": "uint256",
          "name": "_datetime",
          "type": "uint256"
        }
      ],
      "name": "putItemForRent",
      "outputs": [
        {
          "internalType": "uint256",
          "name": "",
          "type": "uint256"
        }
      ],
      "stateMutability": "nonpayable",
      "type": "function"
    },
    {
      "inputs": [
        {
          "internalType": "uint256",
          "name": "_tokenId",
          "type": "uint256"
        },
        {
          "internalType": "uint256",
          "name": "_price",
          "type": "uint256"
        },
        {
          "internalType": "uint256",
          "name": "_supply",
          "type": "uint256"
        },
        {
          "internalType": "uint256",
          "name": "_datetime",
          "type": "uint256"
        }
      ],
      "name": "putItemForSale",
      "outputs": [
        {
          "internalType": "uint256",
          "name": "",
          "type": "uint256"
        }
      ],
      "stateMutability": "nonpayable",
      "type": "function"
    },
    {
      "inputs": [
        {
          "internalType": "uint256",
          "name": "_tokenId",
          "type": "uint256"
        },
        {
          "internalType": "uint256",
          "name": "_day",
          "type": "uint256"
        },
        {
          "internalType": "address payable",
          "name": "_owner",
          "type": "address"
        },
        {
          "internalType": "uint256",
          "name": "_datetime",
          "type": "uint256"
        }
      ],
      "name": "rent",
      "outputs": [],
      "stateMutability": "payable",
      "type": "function"
    },
    {
      "inputs": [
        {
          "internalType": "uint256",
          "name": "_tokenId",
          "type": "uint256"
        },
        {
          "internalType": "uint256",
          "name": "_day",
          "type": "uint256"
        },
        {
          "internalType": "address payable[]",
          "name": "_ownerList",
          "type": "address[]"
        },
        {
          "internalType": "uint256[]",
          "name": "_shareList",
          "type": "uint256[]"
        },
        {
          "internalType": "uint256",
          "name": "_datetime",
          "type": "uint256"
        }
      ],
      "name": "rentFraction",
      "outputs": [],
      "stateMutability": "payable",
      "type": "function"
    },
    {
      "inputs": [
        {
          "internalType": "address",
          "name": "from",
          "type": "address"
        },
        {
          "internalType": "address",
          "name": "to",
          "type": "address"
        },
        {
          "internalType": "uint256[]",
          "name": "ids",
          "type": "uint256[]"
        },
        {
          "internalType": "uint256[]",
          "name": "amounts",
          "type": "uint256[]"
        },
        {
          "internalType": "bytes",
          "name": "data",
          "type": "bytes"
        }
      ],
      "name": "safeBatchTransferFrom",
      "outputs": [],
      "stateMutability": "nonpayable",
      "type": "function"
    },
    {
      "inputs": [
        {
          "internalType": "address",
          "name": "from",
          "type": "address"
        },
        {
          "internalType": "address",
          "name": "to",
          "type": "address"
        },
        {
          "internalType": "uint256",
          "name": "id",
          "type": "uint256"
        },
        {
          "internalType": "uint256",
          "name": "amount",
          "type": "uint256"
        },
        {
          "internalType": "bytes",
          "name": "data",
          "type": "bytes"
        }
      ],
      "name": "safeTransferFrom",
      "outputs": [],
      "stateMutability": "nonpayable",
      "type": "function"
    },
    {
      "inputs": [
        {
          "internalType": "address",
          "name": "operator",
          "type": "address"
        },
        {
          "internalType": "bool",
          "name": "approved",
          "type": "bool"
        }
      ],
      "name": "setApprovalForAll",
      "outputs": [],
      "stateMutability": "nonpayable",
      "type": "function"
    },
    {
      "inputs": [
        {
          "internalType": "uint256",
          "name": "_tokenId",
          "type": "uint256"
        },
        {
          "internalType": "uint256",
          "name": "_supply",
          "type": "uint256"
        },
        {
          "internalType": "uint256",
          "name": "_datetime",
          "type": "uint256"
        }
      ],
      "name": "shareOwnership",
      "outputs": [],
      "stateMutability": "nonpayable",
      "type": "function"
    },
    {
      "inputs": [
        {
          "internalType": "uint256",
          "name": "_tokenId",
          "type": "uint256"
        }
      ],
      "name": "sharedOwnershipTokenId",
      "outputs": [
        {
          "internalType": "uint256",
          "name": "",
          "type": "uint256"
        }
      ],
      "stateMutability": "view",
      "type": "function"
    },
    {
      "inputs": [
        {
          "internalType": "uint256",
          "name": "_tokenId",
          "type": "uint256"
        }
      ],
      "name": "supply",
      "outputs": [
        {
          "internalType": "uint256",
          "name": "",
          "type": "uint256"
        }
      ],
      "stateMutability": "view",
      "type": "function"
    },
    {
      "inputs": [
        {
          "internalType": "bytes4",
          "name": "interfaceId",
          "type": "bytes4"
        }
      ],
      "name": "supportsInterface",
      "outputs": [
        {
          "internalType": "bool",
          "name": "",
          "type": "bool"
        }
      ],
      "stateMutability": "view",
      "type": "function"
    },
    {
      "inputs": [
        {
          "internalType": "uint256",
          "name": "_tokenId",
          "type": "uint256"
        }
      ],
      "name": "uri",
      "outputs": [
        {
          "internalType": "string",
          "name": "",
          "type": "string"
        }
      ],
      "stateMutability": "view",
      "type": "function"
    }
  ],
  "bytecode": "0x608060405234620000265762000014620001b5565b6040516134c06200040a82396134c090f35b600080fd5b634e487b7160e01b600052604160045260246000fd5b90601f01601f191681019081106001600160401b038211176200006357604052565b6200002b565b90620000806200007860405190565b928362000041565b565b6001600160401b0381116200006357602090601f01601f19160190565b90620000b5620000af8362000082565b62000069565b918252565b620000c6605a6200009f565b7f68747470733a2f2f697066732e696f2f697066732f62616679626569686a6a6b60208201527f77647278786a6e757765766c7174716d683369656763616463333273696f347760408201527f6d6f37627632676266333471733334612f7b69647d2e6a736f6e000000000000606082015290565b62000145620000ba565b90565b906001600160a01b03905b9181191691161790565b620001459062000173906001600160a01b031682565b6001600160a01b031690565b62000145906200015d565b62000145906200017f565b90620001a962000145620001b1926200018a565b825462000148565b9055565b620001c9620001c36200013b565b620001ea565b6200008073f39fd6e51aad88f6f4ce6ab8827279cfffb92266600362000195565b6200008090620000809062000080906200008090620003fc565b634e487b7160e01b600052602260045260246000fd5b90600160028304921680156200023d575b60208310146200023757565b62000204565b91607f16916200022b565b9160001960089290920291821b911b62000153565b6200014562000145620001459290565b91906200028262000145620001b1936200025d565b90835462000248565b62000080916000916200026d565b818110620002a5575050565b80620002b560006001936200028b565b0162000299565b9190601f8111620002cc57505050565b620002e06200008093600052602060002090565b906020601f84018190048301931062000304575b6020601f90910104019062000299565b9091508190620002f4565b9062000319815190565b906001600160401b038211620000635762000341826200033a85546200021a565b85620002bc565b602090601f83116001146200038057620001b192916000918362000374575b5050600019600883021c1916906002021790565b01519050388062000360565b601f198316916200039685600052602060002090565b9260005b818110620003d757509160029391856001969410620003bd575b50505002019055565b01516000196008601f8516021c19169055388080620003b4565b919360206001819287870151815501950192016200039a565b9062000080916200030f565b62000080906002620003f056fe6080604052600436101561001257600080fd5b60003560e01c8062fdd58e1461017157806301ffc9a71461016c57806304ed81ab14610167578063064a94f6146101625780630e89341c1461015d57806311a62d65146101585780632eb2c2d614610153578063354030231461014e5780634074a93a1461014957806346c05353146101445780634e1273f41461013f57806377097fc81461013a5780638945257c14610135578063a22cb46514610130578063a786c18b1461012b578063b0e4ac7414610126578063bc197c8114610121578063cefac1bf1461011c578063cfaf94b214610117578063e985e9c514610112578063f23a6e611461010d5763f242432a0361019757610cac565b610c8d565b610c30565b610bfd565b610bb6565b610b7c565b610b47565b610a5f565b610a17565b6109c8565b610979565b61091c565b6107e7565b6107c8565b610771565b610755565b610633565b6104d4565b61044c565b610284565b610242565b6101e1565b6001600160a01b031690565b90565b6001600160a01b0381165b0361019757565b600080fd5b905035906101a982610185565b565b80610190565b905035906101a9826101ab565b919060408382031261019757610182906101d8818561019c565b936020016101b1565b346101975761020d6101fd6101f73660046101be565b90610d41565b6040519182918290815260200190565b0390f35b6001600160e01b03198116610190565b905035906101a982610211565b906020828203126101975761018291610221565b346101975761020d61025d61025836600461022e565b611715565b6040515b91829182901515815260200190565b9060208282031261019757610182916101b1565b346101975761020d6101fd61029a366004610270565b612450565b634e487b7160e01b600052604160045260246000fd5b90601f01601f191681019081106001600160401b038211176102d657604052565b61029f565b906101a96102e860405190565b92836102b5565b6001600160401b0381116102d65760208091020190565b9092919261031b610316826102ef565b6102db565b938185526020808601920283019281841161019757915b83831061033f5750505050565b6020809161034d848661019c565b815201920191610332565b9080601f830112156101975781602061018293359101610306565b90929192610383610316826102ef565b938185526020808601920283019281841161019757915b8383106103a75750505050565b602080916103b584866101b1565b81520192019161039a565b9080601f830112156101975781602061018293359101610373565b919060a083820312610197576103f181846101b1565b926103ff82602083016101b1565b9260408201356001600160401b038111610197578361041f918401610358565b926060830135906001600160401b03821161019757610443816101829386016103c0565b936080016101b1565b61046361045a3660046103db565b93929092612e41565b604051005b60005b83811061047b5750506000910152565b818101518382015260200161046b565b6104ac6104b56020936104bf936104a0815190565b80835293849260200190565b95869101610468565b601f01601f191690565b0190565b60208082526101829291019061048b565b346101975761020d6104ef6104ea366004610270565b61247e565b604051918291826104c3565b9190604083820312610197576101829061051581856101b1565b9360200161019c565b6101826101826101829290565b906105359061051e565b600052602052604060002090565b61018290610176906001600160a01b031682565b61018290610543565b61018290610557565b9061053590610560565b6101829081565b6101829054610573565b61018290610176565b6101829054610584565b906105a66105ab92600761052b565b610569565b6105b48161057a565b916105c16001830161057a565b916105ce6002820161058d565b9161018260046105e06003850161057a565b93015460ff1690565b909594926101a99461062461062b9261061460809661060d60a088019c6000890152565b6020870152565b6001600160a01b03166040850152565b6060830152565b019015159052565b346101975761020d61064f6106493660046104fb565b90610597565b9161065c95939560405190565b958695866105e9565b6001600160401b0381116102d657602090601f01601f19160190565b90826000939282370152565b9092919261069d61031682610665565b93818552602085019082840111610197576101a992610681565b9080601f83011215610197578160206101829335910161068d565b91909160a081840312610197576106e9838261019c565b926106f7816020840161019c565b9260408301356001600160401b03811161019757826107179185016103c0565b9260608101356001600160401b03811161019757836107379183016103c0565b9260808201356001600160401b0381116101975761018292016106b7565b34610197576104636107683660046106d2565b93929092610fab565b346101975761020d6101fd610787366004610270565b612467565b608081830312610197576107a082826101b1565b926101826107b184602085016101b1565b936107bf81604086016101b1565b936060016101b1565b346101975761020d6101fd6107de36600461078c565b929190916132dd565b346101975761020d6101fd6107fd36600461078c565b92919091613166565b90929192610816610316826102ef565b938185526020808601920283019281841161019757915b83831061083a5750505050565b60208091610848848661019c565b81520192019161082d565b9080601f830112156101975781602061018293359101610806565b9190916040818403126101975780356001600160401b0381116101975783610897918301610853565b9260208201356001600160401b0381116101975761018292016103c0565b906108d56108ce6108c4845190565b8084529260200190565b9260200190565b9060005b8181106108e65750505090565b9091926109036108fc6001928651815260200190565b9460200190565b9291016108d9565b6020808252610182929101906108b5565b346101975761020d61093861093236600461086e565b90610e78565b6040519182918261090b565b9190916040818403126101975761095b83826101b1565b9260208201356001600160401b0381116101975761018292016106b7565b346101975761020d6101fd61098f366004610944565b906119c3565b608081830312610197576109a982826101b1565b926101826109ba84602085016101b1565b936107bf816040860161019c565b6104636109d6366004610995565b92919091612923565b801515610190565b905035906101a9826109df565b91906040838203126101975761018290610a0e818561019c565b936020016109e7565b3461019757610463610a2a3660046109f4565b90610f1b565b600091031261019757565b610182916008021c610176565b906101829154610a3b565b61018260006003610a48565b3461019757610a6f366004610a30565b61020d610a7a610a53565b604051918291826001600160a01b03909116815260200190565b906105a6610aa392600861052b565b90610aad8261057a565b91610aba6001820161057a565b91610ac76002830161058d565b91610ad46003820161058d565b916101826005610ae66004850161057a565b930161057a565b9194610b3c610b4392989795610b2c60a096610b1c6101a99a610b1560c08a019e60008b0152565b6020890152565b6001600160a01b03166040870152565b6001600160a01b03166060850152565b6080830152565b0152565b346101975761020d610b63610b5d3660046104fb565b90610a94565b92610b7396949692919260405190565b96879687610aed565b346101975761020d610b9b610b923660046106d2565b939290926116e8565b604051918291826001600160e01b0319909116815260200190565b610463610bc4366004610995565b92919091612aa7565b909160608284031261019757610182610be684846101b1565b93610bf481602086016101b1565b936040016101b1565b3461019757610463610c10366004610bcd565b91612445565b91906040838203126101975761018290610515818561019c565b346101975761020d61025d610c46366004610c16565b90610f26565b91909160a08184031261019757610c63838261019c565b92610c71816020840161019c565b92610c7f82604085016101b1565b9261073783606083016101b1565b346101975761020d610b9b610ca3366004610c4c565b939290926116cd565b3461019757610463610cbf366004610c4c565b939290926125aa565b6101766101826101829290565b61018290610cc8565b15610ce557565b60405162461bcd60e51b815260206004820152602a60248201527f455243313135353a2061646472657373207a65726f206973206e6f742061207660448201526930b634b21037bbb732b960b11b6064820152608490fd5b0390fd5b610d7c906105a661018293610d54600090565b506000610d77610d6661017683610cd5565b6001600160a01b0386161415610cde565b61052b565b61057a565b15610d8857565b60405162461bcd60e51b815260206004820152602960248201527f455243313135353a206163636f756e747320616e6420696473206c656e677468604482015268040dad2e6dac2e8c6d60bb1b6064820152608490fd5b90610dec610316836102ef565b918252565b369037565b906101a9610e0c610e0684610ddf565b936102ef565b601f190160208401610df1565b634e487b7160e01b600052601160045260246000fd5b6000198114610e3e5760010190565b610e19565b634e487b7160e01b600052603260045260246000fd5b90610e62825190565b811015610e73576020809102010190565b610e43565b90610e9c610e84835190565b610e96610e92610182855190565b9190565b14610d81565b610eac610ea7835190565b610df6565b91610eb7600061051e565b610ec2610182835190565b811015610f155780610f0b610efe610eed610ee0610f109587610e59565b516001600160a01b031690565b6101f7610efa8589610e59565b5190565b610f088388610e59565b52565b610e2f565b610eb7565b50505090565b6101a991903361132e565b610182916105a6610f4192610f39600090565b506001610569565b5460ff1690565b15610f4f57565b60405162461bcd60e51b815260206004820152602e60248201527f455243313135353a2063616c6c6572206973206e6f7420746f6b656e206f776e60448201526d195c881bdc88185c1c1c9bdd995960921b6064820152608490fd5b6101a99493929190610fd1336001600160a01b0383168114908115610fd6575b50610f48565b61115a565b610fe1915083610f26565b38610fcb565b15610fee57565b60405162461bcd60e51b815260206004820152602860248201527f455243313135353a2069647320616e6420616d6f756e7473206c656e677468206044820152670dad2e6dac2e8c6d60c31b6064820152608490fd5b1561104b57565b60405162461bcd60e51b815260206004820152602560248201527f455243313135353a207472616e7366657220746f20746865207a65726f206164604482015264647265737360d81b6064820152608490fd5b156110a557565b60405162461bcd60e51b815260206004820152602a60248201527f455243313135353a20696e73756666696369656e742062616c616e636520666f60448201526939103a3930b739b332b960b11b6064820152608490fd5b90600019905b9181191691161790565b9061111d6101826111249261051e565b82546110fd565b9055565b91908201809211610e3e57565b604080825261018293919261114c918401906108b5565b9160208184039101526108b5565b929194909461117e61116a825190565b611178610e92610182875190565b14610fe7565b6000916111a261119061017685610cd5565b6001600160a01b0389165b1415611044565b33956111ad8461051e565b6111b8610182855190565b81101561124a5780610f0b8861123f6112308d6105a68c61122a8d6112256111f58f8c6111ef6112459f610efa90610efa94610e59565b96610e59565b986105a68561121f8c61120f610d7c866105a6868b61052b565b61121b8282101561109e565b0390565b9461052b565b61110d565b8c61052b565b9161123a8361057a565b611128565b9061110d565b6111ad565b509490969192506101a9957f4a39dc06d4c0dbc64b70af90fd698a233a518aa5d07e595d983b8c0526c8f7fb61127f82610560565b61128884610560565b9061129286610560565b9261129c60405190565b806112a88b8b83611135565b0390a46114c7565b156112b757565b60405162461bcd60e51b815260206004820152602960248201527f455243313135353a2073657474696e6720617070726f76616c20737461747573604482015268103337b91039b2b63360b91b6064820152608490fd5b9060ff90611103565b9061132761018261112492151590565b825461130e565b61134c6001600160a01b0383166001600160a01b03831614156112b0565b6113648361135f846105a6856001610569565b611317565b6113a461139a6113947f17307eab39ab6107e8899845ad3d59bd9653f200f220920489ca2b5937696c3193610560565b93610560565b9361026160405190565b0390a3565b905051906101a982610211565b9060208282031261019757610182916113a9565b9390611413906101829694611406611421956113f660a08a019460008b01906001600160a01b03169052565b6001600160a01b03166020890152565b86820360408801526108b5565b9084820360608601526108b5565b91608081840391015261048b565b6040513d6000823e3d90fd5b60009060033d1161144857565b905060046000803e60005160e01c90565b60009060443d106101a95760405160043d036004823e8051903d60248301116001600160401b038311176114c3578181019182516001600160401b0381116114bd5780602085010160043d038401106114bd576101829394955060200101906102b5565b50505050565b5050565b909493949291926114d784611703565b6114e4575b505050505050565b60006114f96114f4602096610560565b610560565b9261152863bc197c819761150c60405190565b998a978896879561151d8d60e01b90565b8752600487016113ca565b03925af160009281611677575b506115f8575050600161154661143b565b6308c379a0146115c3575b611561575b3880808080806114dc565b60405162461bcd60e51b815260206004820152603460248201527f455243313135353a207472616e7366657220746f206e6f6e2d455243313135356044820152732932b1b2b4bb32b91034b6b83632b6b2b73a32b960611b6064820152608490fd5b6115cb611459565b806115d65750611551565b610d3d906115e360405190565b62461bcd60e51b8152918291600483016104c3565b61160e61161c9160e01b63ffffffff60e01b1690565b916001600160e01b03191690565b146115565760405162461bcd60e51b815260206004820152602860248201527f455243313135353a204552433131353552656365697665722072656a656374656044820152676420746f6b656e7360c01b6064820152608490fd5b61169991935060203d81116116a0575b61169181836102b5565b8101906113b6565b9138611535565b503d611687565b6116c06116ba6101829263ffffffff1690565b60e01b90565b6001600160e01b03191690565b50505050506116da600090565b5061018263f23a6e616116a7565b50505050506116f5600090565b5061018263bc197c816116a7565b3b611711610e92600061051e565b1190565b61018290630271189760e51b6001600160e01b0319821614908115611738575090565b6101829150636cdb3d1360e11b6001600160e01b031982161490811561176d575b8115611763575090565b6101829150611788565b6001600160e01b031981166303a24d0760e21b149150611759565b6117986301ffc9a760e01b61160e565b1490565b90610dec61031683610665565b610182600061179c565b6101826117a9565b634e487b7160e01b600052602260045260246000fd5b90600160028304921680156117f1575b60208310146117ec57565b6117bb565b91607f16916117e1565b9160001960089290920291821b911b611103565b91906118206101826111249361051e565b9083546117fb565b6101a99160009161180f565b81811061183f575050565b8061184d6000600193611828565b01611834565b9190601f811161186257505050565b6118746101a993600052602060002090565b906020601f840181900483019310611896575b6020601f909101040190611834565b9091508190611887565b906118a9815190565b906001600160401b0382116102d6576118cc826118c685546117d1565b85611853565b602090601f8311600114611907576111249291600091836118fc575b5050600019600883021c1916906002021790565b0151905038806118e8565b601f1983169161191c85600052602060002090565b9260005b81811061195b57509160029391856001969410611941575b50505002019055565b01516000196008601f8516021c19165b9055388080611938565b91936020600181928787015181550195019201611920565b906101a9916118a0565b611987600661179c565b65135a5b9d195960d21b602082015290565b61018261197d565b929160206119be6101a9936040870190878203600089015261048b565b940152565b610182916009916119d383611cb2565b6119dc83611c9d565b33906119f16119e96117b3565b848385611b0f565b611a0584611a0083600461052b565b611973565b611a148361122583600561052b565b611a24611a1f611999565b61334b565b611a2d8461334b565b611a3682613377565b611a3f30610560565b92611a4984613377565b611a52816132eb565b611a88611a82611a827f894774bdebab5556eead09c60613a181e05539202584ef1adc2e72af8f1eab8f9461051e565b94610560565b94611a9e611a9560405190565b928392836119a1565b0390a4611c9d565b15611aad57565b60405162461bcd60e51b815260206004820152602160248201527f455243313135353a206d696e7420746f20746865207a65726f206164647265736044820152607360f81b6064820152608490fd5b9081526040810192916101a99160200152565b906101a99392916000611b2181610cd5565b90611b406001600160a01b0383166001600160a01b0385161415611aa6565b611b73611b66846105a6873395611b5682611c79565b50611b608b611c79565b5061052b565b61123f8761123a8361057a565b7fc3d58168c5ae7397731d063d5bbf3d657854427343f4c083240f7aacaa2d0f62611b9d82610560565b611ba684610560565b90611bb086610560565b92611bba60405190565b80611bc68b8b83611afc565b0390a4611c1e565b91936106246101829694611c0a611c119497611bfa60a088019960008901906001600160a01b03169052565b6001600160a01b03166020870152565b6040850152565b608081840391015261048b565b90949394929192611c2e84611703565b611c3a57505050505050565b6000611c4a6114f4602096610560565b9261152863f23a6e6197611c5d60405190565b998a9788968795611c6e8d60e01b90565b875260048701611bce565b610182611c89610ea7600161051e565b91610f08611c97600061051e565b84610e59565b600061018291611cab600090565b500161057a565b6101a99061123f6000611cc5600161051e565b9201916104bf8361057a565b611cdb601c61179c565b7f4974656d206973206e6f7420696e2072656e74616c20726572696f6400000000602082015290565b610182611cd1565b15611d1357565b60405162461bcd60e51b815260206004820152601860248201527f4974656d20697320696e2072656e74616c20706572696f6400000000000000006044820152606490fd5b906101a99291611dbf611db66005611dab33611d75611a1f611d04565b611d7e866132eb565b611d8781613377565b611d90886132eb565b6105a6866008610d77611db187611dab876105a6878761052b565b0161057a565b6132eb565b84905b10611d0c565b611e02565b15611dcb57565b60405162461bcd60e51b815260206004820152600f60248201526e151bdad95b881a5cc81c995b9d1959608a1b6044820152606490fd5b906101a99291611e4133611e16600061051e565b60089184611e2d6005611dab846105a6858961052b565b831015938415611e46575b50505050611dc4565b61219b565b611e5f939450610182926105a6600593611dab9361052b565b1438808481611e38565b611e73600f61179c565b6e05368617265206f776e65727368697608c1b602082015290565b610182611e69565b611ea0600361179c565b6203078360ec1b602082015290565b610182611e96565b61018290546117d1565b908082146114c357611ed281611eb7565b906001600160401b0382116102d657611eef826118c685546117d1565b600090601f8311600114611f2957611124929160009183611f1e575050600019600883021c1916906002021790565b0154905038806118e8565b90611f3e601f19841692600052602060002090565b90611f4e85600052602060002090565b92815b818110611f8557509160029391856001969410611f715750505002019055565b01546000196008601f8516021c1916611951565b91936001806020928787015481550195019201611f51565b906101a991611ec1565b80546000939291611fc4611fba836117d1565b8085529360200190565b91600181169081156120165750600114611fdd57505050565b611ff09192939450600052602060002090565b916000925b8184106120025750500190565b805484840152602090930192600101611ff5565b92949550505060ff1916825215156020020190565b9061018291611fa7565b906101a961204f9261204660405190565b9384809261202b565b03836102b5565b61018290612035565b80546000939291612072611fba836117d1565b9160018116908115612016575060011461208b57505050565b61209e9192939450600052602060002090565b916000925b8184106120b05750500190565b8054848401526020909301926001016120a3565b929160206119be6101a9936040870190878203600089015261205f565b61018260c06102db565b906001600160a01b0390611103565b9061210a61018261112492610560565b82546120eb565b6101a9919061123f9060a09060059061212a8185875190565b61213c6001820161123f602088015190565b61215d6002820161215760408801516001600160a01b031690565b906120fa565b6121786003820161215760608801516001600160a01b031690565b61218a6004820161123f608088015190565b0192015190565b906101a991612111565b916121a4611e8e565b6121ad9061334b565b6121b6836132eb565b6121bf826132eb565b6121c8906132eb565b33916121d383613377565b6121dd600361058d565b816121e8600161051e565b6121f0611eaf565b916121fb93876125aa565b60099261220784611cb2565b61221084611c9d565b836122196117b3565b906122249284611b0f565b600490612231838361052b565b61223a86611c9d565b612244908461052b565b9061224e91611f9d565b83600561225a87611c9d565b6122639161052b565b9061226d9161110d565b61227685611c9d565b61228184600661052b565b9061228b9161110d565b612293611999565b61229c9061334b565b6122a6838361052b565b6122af90612056565b6122b89061334b565b6122c181613377565b6122ca30610560565b946122d486613377565b6122dd856132eb565b6122e690611c9d565b946122f1848461052b565b907f894774bdebab5556eead09c60613a181e05539202584ef1adc2e72af8f1eab8f9661231d9061051e565b61232684610560565b976123318993610560565b938861233c60405190565b91829161234991836120c4565b0390a482612357600361058d565b61236090610560565b9261236b600361058d565b90600893612379848661052b565b9061238391610569565b0161238d9061057a565b6000916123986120e1565b956123a38585890152565b6123ae896020890152565b6001600160a01b031660408701526001600160a01b0316606086015260808501526123d89061051e565b60a08401526123e69161052b565b6123f0600361058d565b6123f991610569565b9061240391612191565b7f07a01700b7b6749a1c84d18f81470ee571f6222cdd76f4cbd86af901bf52ee759061242e9061051e565b9161243860405190565b90815280602081016113a4565b906101a99291611d58565b610d7c6101829161245f600090565b50600661052b565b610d7c61018291612476600090565b50600561052b565b6124956101829161248d606090565b50600461052b565b612056565b6124a4601261179c565b7153616665207472616e7366657220666f726d60701b602082015290565b61018261249a565b6124d4600461179c565b6366726f6d60e01b602082015290565b6101826124ca565b6124f6600261179c565b61746f60f01b602082015290565b6101826124ec565b612516600861179c565b671d1bdad95b881a5960c21b602082015290565b61018261250c565b61253c600661179c565b65185b5bdd5b9d60d21b602082015290565b610182612532565b612560600d61179c565b6c3130b630b731b290333937b69d60991b602082015290565b610182612556565b61258b600b61179c565b6a3130b630b731b2903a379d60a91b602082015290565b610182612581565b906101a9949392916125bd611a1f6124c2565b6125ce816125c96124e4565b61345d565b6125da826125c9612504565b6125eb836125e661252a565b6133b1565b6125f7846125e661254e565b612602611a1f612579565b61260f611db18483610d41565b61261a611a1f6125a2565b612627611db18484610d41565b906101a994939291600061264f61264061017683610cd5565b6001600160a01b03851661119b565b611b73611b66846105a687339561266582611c79565b5061266f8b611c79565b50610d776126888c61120f610d7c8c6105a6888861052b565b6112258a6105a6868661052b565b1561269d57565b60405162461bcd60e51b8152602060048201526012602482015271109d5e595c881a5cc81b9bdd081d985b1a5960721b6044820152606490fd5b906101a99392916127126126ea84610560565b61270b6126fe33926001600160a01b031690565b916001600160a01b031690565b1415612696565b906101a993929161275a6127536005611dab61272d87610560565b612738611a1f611d04565b612741866132eb565b61274a81613377565b611d90896132eb565b8590611db9565b6127df565b612769600d61179c565b6c436865636b2062616c616e636560981b602082015290565b61018261275f565b81810292918115918404141715610e3e57565b156127a457565b60405162461bcd60e51b8152602060048201526013602482015272105b5bdd5b9d081a5cc81b9bdd081d985b1a59606a1b6044820152606490fd5b906101a99392916128496127fd6003611dab866105a686600761052b565b612808611a1f612782565b61281133613377565b612842610e926101823493612825856132eb565b61282e816132eb565b61283c64e8d4a5100061051e565b9061278a565b101561279d565b61288a565b1561285557565b60405162461bcd60e51b815260206004820152600d60248201526c151bdad95b881a5cc81cdbdb19609a1b6044820152606490fd5b906101a99392916128be6128b860046128b06128a587610560565b6105a686600761052b565b015460ff1690565b1561284e565b6000935083929161290384939260046128fd86956128f0336128df83610560565b97866128e9611eaf565b928a6125aa565b6105a6600194600761052b565b01611317565b349082821561291a575bf11561291557565b61142f565b506108fc61290d565b906101a99392916126d7565b906101a993929161294a6127536005611dab61272d87610560565b906101a993929161295d6126ea84610560565b906101a99392916129846127fd8361297f6004611dab886105a688600861052b565b61278a565b906101a99392916129c361299784610560565b600890836129ae6005611dab846105a6858861052b565b88905b11159283156129c8575b505050611dc4565b612a15565b6129dd9350916105a6611dab9260059461052b565b6129ea610e92600061051e565b143883816129bb565b6129fd600461179c565b6314995b9d60e21b602082015290565b6101826129f3565b612903836114f4612aa26003612a9c600099986105a68b9a98612a468c9b9a61123a8d9c61283c6305265c0061051e565b612a626008916005612a5c876105a6878761052b565b0161110d565b612a7b3387612a75876105a6878761052b565b016120fa565b612a86611a1f612a0d565b610d77611db16005611dab876105a6878761052b565b0161058d565b613377565b906101a993929161292f565b906101a994939291612afd612af66005611dab612ad0600361058d565b612adb611a1f611d04565b612ae4866132eb565b612aed81613377565b611d908a6132eb565b8690611db9565b906101a994939291612b126126ea600361058d565b906101a994939291612b446127fd8361297f6004611dab612b3487600861052b565b612b3e600361058d565b90610569565b906101a994939291612b77612b59600361058d565b60089083612b706005611dab846105a6858861052b565b89906129b1565b612c8d565b906101a9612c086005612b8d6120e1565b94612b9e612b9a8261057a565b8752565b612bb4612bad6001830161057a565b6020880152565b612bd3612bc36002830161058d565b6001600160a01b03166040880152565b612bf2612be26003830161058d565b6001600160a01b03166060880152565b611dab612c016004830161057a565b6080880152565b60a0840152565b61018290612b7c565b612c22600a61179c565b6913dddb995c88131a5cdd60b21b602082015290565b610182612c18565b612c4a600a61179c565b6914da185c9948131a5cdd60b21b602082015290565b610182612c40565b634e487b7160e01b600052601260045260246000fd5b8115612c88570490565b612c68565b94929193612cea91610ee0611db1612cc9612aa29461123a612cbb612cb6612b348e600861052b565b612c0f565b9561283c6305265c0061051e565b612cd560a08501918252565b33606094909401938452610efa611a1f612a0d565b612cf5611a1f612c38565b6000612d008161051e565b612d0b610182865190565b811015612d2e5780610f0b612aa26114f4610ee0612d29958a610e59565b612d00565b50909193612d3d611a1f612c60565b612d468261051e565b612d51610182855190565b811015612d715780610f0b611db1610efa612d6c9488610e59565b612d46565b509092612d7d8461051e565b612d88610182835190565b811015612e3a57612dbb612d9f610ee08385610e59565b612db6612db0610d7c87600661052b565b91610560565b610d41565b612dce610e92610182610efa8589610e59565b14612de2575b612ddd90610e2f565b612d7d565b84808080612df66114f4610ee08789610e59565b612e1e612e0a3461283c610efa8a8e610e59565b612e18610d7c8b600561052b565b90612c7e565b90828215612e31575bf1612dd45761142f565b506108fc612e27565b5050505050565b906101a994939291612ab3565b9061018294939291612ea3612af66005611dab33612e6d611a1f611d04565b612e76876132eb565b612e7f81613377565b612e888a6132eb565b6105a6876008610d77611db187611dab876105a6878761052b565b612f90565b612eb2600b61179c565b6a21b432b1b59027bbb732b960a91b602082015290565b610182612ea8565b612edb600661179c565b6539b2b73232b960d11b602082015290565b610182612ed1565b612eff600761179c565b6662616c616e636560c81b602082015290565b610182612ef5565b612f24600c61179c565b6b746f6b656e20737570706c7960a01b602082015290565b610182612f1a565b15612f4b57565b60405162461bcd60e51b815260206004820152601c60248201527f53656e64657220646f6573206e6f74206f776e20746865206974656d000000006044820152606490fd5b9061018294939291612fa3611a1f612ec9565b613011612ffd8333612fb7816125c9612eed565b612fc3826125e661252a565b612fd8612fd08383610d41565b6125e6612f12565b612db6612fe683600461052b565b612ff7612ff1612f3c565b91612056565b90613403565b61300a610e92600061051e565b1415612f44565b6130c9565b61018260a06102db565b6101a991906130839060809060049061303b8161123f875190565b61304d6001820161123f602088015190565b6130686002820161215760408801516001600160a01b031690565b61307a6003820161123f606088015190565b01920151151590565b90611317565b906101a991613020565b610b436101a9946130c26060949897956130b2608086019a6000870152565b6001600160a01b03166020850152565b6040830152565b50925090336131286130da82610560565b61311460006131006130ea613016565b936130f58a84870152565b610614886020870152565b61310b876060850152565b15156080830152565b613123836105a688600761052b565b613089565b6131607f9a5e45cfe5bbc15cffbbb40607ec1ab447d2046a6070023aebc57ef3bd2005c19361315660405190565b9384938785613093565b0390a190565b610182939291906000612e4e565b9061018294939291613193612af66005611dab33612e6d611a1f611d04565b90610182949392916131a6611a1f612ec9565b6131ba612ffd8333612fb7816125c9612eed565b6131ff565b156131c657565b60405162461bcd60e51b8152602060048201526011602482015270546f6b656e2069732066756e6769626c6560781b6044820152606490fd5b906101829493929161322b613218610d7c84600561052b565b613225610e92600161051e565b146131bf565b50925090336132af61323c82610560565b61329b613294600061327561324f6120e1565b9461325a8b84880152565b613265896020880152565b6001600160a01b03166040860152565b6001600160a01b038616606085015261328f886080860152565b61051e565b60a0830152565b6132aa836105a688600861052b565b612191565b6131607f7221ca00e718f25b9ebf46fd06c61846ac5c17b529dd61fe23e230fdbaa0703c9361315660405190565b610182939291906000613174565b61331b61332a6101a9926132fe60405190565b63f82c50f160e01b60208201529283916024830190815260200190565b602082018103825203826102b5565b60008091613336815190565b906020016a636f6e736f6c652e6c6f675afa50565b61331b61332a6101a99261335e60405190565b63104c13eb60e21b6020820152928391602483016104c3565b61331b61332a6101a99261338a60405190565b63161765e160e11b6020820152928391602483016001600160a01b03909116815260200190565b9061332a6101a99261331b6133c560405190565b632d839cb360e21b6020820152938492602484016119a1565b60408082526101829391926133f59184019061048b565b91602081840391015261048b565b9061332a6101a99261331b61341760405190565b634b5c427760e01b6020820152938492602484016133de565b9291602061344d6101a9936040870190878203600089015261048b565b9401906001600160a01b03169052565b9061332a6101a99261331b61347160405190565b63319af33360e01b60208201529384926024840161343056fea26469706673582212207cc03fcbbef749a7bbd259c131a1c44b5f33b0a26552b14adf54ee321ddad72664736f6c63430008120033",
  "linkReferences": {},
  "deployedLinkReferences": {}
}